:020000040000fa
:080000000002040000000000f2
:020000040000fa
:040008005e05000091
:020000040000fa
:04000c00a00500004b
:020000040000fa
:04001000e005000007
:020000040000fa
:040014007e05000065
:020000040000fa
:04001800c00500001f
:020000040000fa
:04001c005a06000080
:020000040000fa
:0400200000060000d6
:020000040000fa
:040024005a06000078
:020000040000fa
:040028005a06000074
:020000040000fa
:04002c005a06000070
:020000040000fa
:040030005a0600006c
:020000040000fa
:040034005a06000068
:020000040000fa
:040038005a06000064
:020000040000fa
:04003c005a06000060
:020000040000fa
:040040005a0600005c
:020000040000fa
:040044005a06000058
:020000040000fa
:040048005a06000054
:020000040000fa
:04004c005a06000050
:020000040000fa
:040050005a0600004c
:020000040000fa
:040054005a06000048
:020000040000fa
:040058005a06000044
:020000040000fa
:04005c005a06000040
:020000040000fa
:040060005a0600003c
:020000040000fa
:040064005a06000038
:020000040000fa
:040068005a06000034
:020000040000fa
:04006c005a06000030
:020000040000fa
:040070005a0600002c
:020000040000fa
:040074005a06000028
:020000040000fa
:040078005a06000024
:020000040000fa
:04007c005a06000020
:020000040000fa
:040080005a0600001c
:020000040000fa
:040084005a06000018
:020000040000fa
:040088005a06000014
:020000040000fa
:04008c005a06000010
:020000040000fa
:040090005a0600000c
:020000040000fa
:040094005a06000008
:020000040000fa
:040098005a06000004
:020000040000fa
:04009c005a06000000
:020000040000fa
:0400a0005a060000fc
:020000040000fa
:0400a4005a060000f8
:020000040000fa
:0400a8005a060000f4
:020000040000fa
:0400ac005a060000f0
:020000040000fa
:0400b0005a060000ec
:020000040000fa
:0400b4005a060000e8
:020000040000fa
:0400b8005a060000e4
:020000040000fa
:0400bc005a060000e0
:020000040000fa
:0400c0000e0300002b
:020000040000fa
:0400c4005a060000d8
:020000040000fa
:0400c8005a060000d4
:020000040000fa
:0400cc005a060000d0
:020000040000fa
:0400d0005a060000cc
:020000040000fa
:0400d4005a060000c8
:020000040000fa
:0400d8005a060000c4
:020000040000fa
:0400dc005a060000c0
:020000040000fa
:0400e0005a060000bc
:020000040000fa
:0400e4005a060000b8
:020000040000fa
:0400e8005a060000b4
:020000040000fa
:0400ec005a060000b0
:020000040000fa
:0400f0005a060000ac
:020000040000fa
:0400f4005a060000a8
:020000040000fa
:0400f8005a060000a4
:020000040000fa
:0400fc005a060000a0
:020000040000fa
:040100005a0600009b
:020000040000fa
:040104005a06000097
:020000040000fa
:040108005a06000093
:020000040000fa
:04010c005a0600008f
:020000040000fa
:040110005a0600008b
:020000040000fa
:040114005a06000087
:020000040000fa
:040118005a06000083
:020000040000fa
:04011c005a0600007f
:020000040000fa
:040120005a0600007b
:020000040000fa
:040124005a06000077
:020000040000fa
:040128005a06000073
:020000040000fa
:04012c005a0600006f
:020000040000fa
:040130005a0600006b
:020000040000fa
:040134005a06000067
:020000040000fa
:040138005a06000063
:020000040000fa
:04013c005a0600005f
:020000040000fa
:040140005a0600005b
:020000040000fa
:040144005a06000057
:020000040000fa
:040148005a06000053
:020000040000fa
:04014c005a0600004f
:020000040000fa
:040150005a0600004b
:020000040000fa
:040154005a06000047
:020000040000fa
:040158005a06000043
:020000040000fa
:04015c005a0600003f
:020000040000fa
:040160005a0600003b
:020000040000fa
:040164005a06000037
:020000040000fa
:040168005a06000033
:020000040000fa
:04016c005a0600002f
:020000040000fa
:040170005a0600002b
:020000040000fa
:040174005a06000027
:020000040000fa
:040178005a06000023
:020000040000fa
:04017c005a0600001f
:020000040000fa
:040180005a0600001b
:020000040000fa
:040184005a06000017
:020000040000fa
:040188005a06000013
:020000040000fa
:04018c005a0600000f
:020000040000fa
:040190005a0600000b
:020000040000fa
:040194005a06000007
:020000040000fa
:040198005a06000003
:020000040000fa
:04019c005a060000ff
:020000040000fa
:0401a0005a060000fb
:020000040000fa
:0401a4005a060000f7
:020000040000fa
:0401a8005a060000f3
:020000040000fa
:0401ac005a060000ef
:020000040000fa
:0401b0005a060000eb
:020000040000fa
:0401b4005a060000e7
:020000040000fa
:0401b8005a060000e3
:020000040000fa
:0401bc005a060000df
:020000040000fa
:0401c0005a060000db
:020000040000fa
:0401c4005a060000d7
:020000040000fa
:0401c8005a060000d3
:020000040000fa
:0401cc005a060000cf
:020000040000fa
:0401d0005a060000cb
:020000040000fa
:0401d4005a060000c7
:020000040000fa
:0401d8005a060000c3
:020000040000fa
:0401dc005a060000bf
:020000040000fa
:0401e0005a060000bb
:020000040000fa
:0401e4005a060000b7
:020000040000fa
:0401e8005a060000b3
:020000040000fa
:0401ec005a060000af
:020000040000fa
:0401f0005a060000ab
:020000040000fa
:0401f4005a060000a7
:020000040000fa
:0401f8005a060000a3
:020000040000fa
:0401fc005a0600009f
:020000040000fa
:040200005a0600009a
:020000040000fa
:040204005a06000096
:020000040000fa
:040208005a06000092
:020000040000fa
:04020c005a0600008e
:020000040000fa
:040210005a0600008a
:020000040000fa
:040214005a06000086
:020000040000fa
:040218005a06000082
:020000040000fa
:04021c005a0600007e
:020000040000fa
:040220005a0600007a
:020000040000fa
:040224005a06000076
:020000040000fa
:040228005a06000072
:020000040000fa
:04022c005a0600006e
:020000040000fa
:040230005a0600006a
:020000040000fa
:040234005a06000066
:020000040000fa
:040238005a06000062
:020000040000fa
:04023c005a0600005e
:020000040000fa
:040240005a0600005a
:020000040000fa
:040244005a06000056
:020000040000fa
:040248005a06000052
:020000040000fa
:04024c005a0600004e
:020000040000fa
:040250005a0600004a
:020000040000fa
:040254005a06000046
:020000040000fa
:040258005a06000042
:020000040000fa
:04025c005a0600003e
:020000040000fa
:040260005a0600003a
:020000040000fa
:040264005a06000036
:020000040000fa
:040268005a06000032
:020000040000fa
:04026c005a0600002e
:020000040000fa
:040270005a0600002a
:020000040000fa
:040274005a06000026
:020000040000fa
:040278005a06000022
:020000040000fa
:04027c005a0600001e
:020000040000fa
:040280005a0600001a
:020000040000fa
:040284005a06000016
:020000040000fa
:040288005a06000012
:020000040000fa
:04028c005a0600000e
:020000040000fa
:040290005a0600000a
:020000040000fa
:040294005a06000006
:020000040000fa
:040298005a06000002
:020000040000fa
:04029c005a060000fe
:020000040000fa
:0402a0005a060000fa
:020000040000fa
:0402a4005a060000f6
:020000040000fa
:0402a8005a060000f2
:020000040000fa
:0402ac005a060000ee
:020000040000fa
:0402b0005a060000ea
:020000040000fa
:0402b4005a060000e6
:020000040000fa
:0402b8005a060000e2
:020000040000fa
:0402bc005a060000de
:020000040000fa
:0402c0005a060000da
:020000040000fa
:0402c4005a060000d6
:020000040000fa
:0402c8005a060000d2
:020000040000fa
:0402cc005a060000ce
:020000040000fa
:0402d0005a060000ca
:020000040000fa
:0402d4005a060000c6
:020000040000fa
:0402d8005a060000c2
:020000040000fa
:0402dc005a060000be
:020000040000fa
:0402e0005a060000ba
:020000040000fa
:0402e4005a060000b6
:020000040000fa
:0402e8005a060000b2
:020000040000fa
:0402ec005a060000ae
:020000040000fa
:0402f0005a060000aa
:020000040000fa
:0402f4005a060000a6
:020000040000fa
:0402f8005a060000a2
:020000040000fa
:0402fc005a0600009e
:020000040000fa
:040300005a06000099
:020000040000fa
:040304005a06000095
:020000040000fa
:040308005a06000091
:020000040000fa
:04030c005a0600008d
:020000040000fa
:040310005a06000089
:020000040000fa
:040314005a06000085
:020000040000fa
:040318005a06000081
:020000040000fa
:04031c005a0600007d
:020000040000fa
:040320005a06000079
:020000040000fa
:040324005a06000075
:020000040000fa
:040328005a06000071
:020000040000fa
:04032c005a0600006d
:020000040000fa
:10040000af0521000eff26000e018800000000004d
:10041000000020000000e000020032000001200087
:100420002002880014000700240207000000e000fa
:1004300003003a00c0be2000010020000200370087
:100440000000200001002000810f70000100320038
:100450000f000700000020000000e0000200320052
:1004600000000200000000006a0c02000000000012
:100470000040da000000fe00200020000000e00044
:1004800002003200100020009001880000000600e9
:10049000a1028800800478000000eb001f003700f4
:1004a000e284440054a0b4009905ba00e2844400f8
:1004b00054a0b4009906ba00e284440054a0b400e9
:1004c0000006eb00476fde00fd07b200ae018800ba
:1004d000636ce10003003a000ad801000000eb0061
:1004e0000e003700606ce10008003a00004deb00a0
:1004f0000a05e800020039003420ec000af0a000f0
:100500008b05e900f9ff3e00040037006168e10057
:10051000010032000086eb000b00070019c7ba008b
:100520001905ba000e04e00003003a000a00e000da
:10053000dbff3a0000000600fe07b200ae028800b2
:100540008a047800f5ff37000cd0a300e20f4d00bd
:100550001c00390089027800354dba000a05e80010
:10056000020039003420ec000af0a0008b05e900fd
:100570000f003200254dba000a05e80002003900dc
:100580003420ec000af0a0008b05e90008003200de
:100590000c00e0000600320015cdba000a05e800a4
:1005a000020039003420ec000af0a0008b05e900bd
:1005b0008984e80054a0b4000b00e000e2ff3a0098
:1005c000000006009902ba00055d78008b05e9007d
:1005d000f7ff3200c82ade00055d78008b05e900d0
:1005e000f3ff32000c00e000f1ff320019ddba0029
:1005f000eeff37004e070400000000007c070400f7
:1006000000000000ae07040000000000e207040044
:100610000000000014080400000000003600f8008c
:10062000809fbe00829fbe00849fbe00869fbe004a
:100630000000fa0004c8a900011180000008200091
:10064000008060000000e0000800320020e2a90005
:100650000830ef0070808000200090008000eb00e8
:10066000010878000e30ef000d0137004080800057
:100670008000eb00b200200003002000820f500039
:10068000838f5800fc003e00000601000b0037007d
:1006900039003700750037009c003700f300370041
:1006a000c8003700d9003700f0003700db00370002
:1006b000f1003700340037005000370000002100ff
:1006c00020009000620060000000e000f3003a00ab
:1006d00000002100100090007080880000002100c0
:1006e00010009000104078000af0b70000002100d0
:1006f0001000900010009000608088000000210031
:1007000010009000e6004000000021001100980059
:100710000000210090009000e0042100808f500034
:1007200003003a000000210081042100110098001c
:1007300000002100a00090000100a100210098000d
:1007400000002100900090000000210010007800bf
:10075000808f500004003a0000002100a0009000ab
:100760000110a000210098001c02a8002000200019
:1007700040808800ca0037001c22a800200020000a
:1007800040808800c600370001118000000028006a
:10079000008060000000e00008003200000021003e
:1007a000604090008040e800000021006140980017
:1007b0004000200068020700b900370080808000f8
:1007c0008000d100f00f20000080600080118800c0
:1007d0008080800061006000004078000004e0003c
:1007e00003003200b000200040808800ac003700d9
:1007f0003000200040808800a900370001118000ef
:1008000000002800008060000000e00008003200c6
:1008100000002100604090008040e80000002100be
:1008200061409800400020004b0207009c00370008
:100830001c22a800808080004800de00e6006000e6
:10084000000f200001007000808088008080800000
:100850000000a0008080880010c0b30012f0b70034
:1008600020002000408088008d00370012d0bf009b
:10087000e14f50000a0032006080800010007800d4
:10088000808088006080800020009000a080880028
:10089000608080002040900016f0b7000100370013
:1008a0001270ef0081808000f00f2000808f5000d8
:1008b00009003600808080004800de00e60060000d
:1008c000000f20000100700080118800a0002000af
:1008d000408088007200370080808000801188008e
:1008e0008080800061006000004078000004e0002b
:1008f000030032005000200040808800680037006c
:100900003000200040808800650037000111800021
:1009100000002800008060000000e00009003200b4
:1009200000002100604090008040e80000002100ad
:100930006140980021e2a900500020000602070053
:100940005700370016d0bf008080fb008100e9000f
:10095000cf08de00814078000040e90016f0b700c3
:100960000104e0001000320060808000660040005a
:10097000608088000ad0bf000040e9000af0b7009c
:100980000ad0bf000004e00003003a00200020006d
:10099000f1010700420037001c22a80020002000bf
:1009a000408088003e003700a080800090407800a2
:1009b0008180fb00811188000000e800a080880091
:1009c000370037000111800000002800008060001f
:1009d0000000e000090032000000210060409000ab
:1009e0008040e800000021006140980040002000a5
:1009f000d901070021e2a900290037001c62a800e4
:100a00008000200040808800250037008000200002
:100a1000408088001c62a80021003700a080800070
:100a2000a111800081407800014878000000e800b2
:100a3000a080880016d0bf000040e90016f0b70083
:100a400016d0bf000004e000040032001ca2a90080
:100a50006000200040808800020037001ca2a8002f
:100a6000ac0107001c82a8000d0037002000200008
:100a7000b90107000a003700000021006040900023
:100a80008040e800000021006140980060002000e4
:100a9000b101070000000000010037000000000065
:100aa0000080fa004f03be004f02be004f01be009f
:100ab0004f00be003600f900004006003600f80086
:100ac000809fbe00829fbe00849fbe00869fbe00a6
:100ad0000000fa00c028a9000000eb007103070025
:100ae0000080fa004f03be004f02be004f01be005f
:100af0004f00be003600f900004006003600f80046
:100b0000809fbe00829fbe00849fbe00869fbe0065
:100b10000000fa0068030700c048a9001000200088
:100b2000600307000080fa004f03be004f02be00c2
:100b30004f01be004f00be003600f9000040060025
:100b40003600f800809fbe00829fbe00849fbe00da
:100b5000869fbe000000fa00c068a90020002000a7
:100b6000500307000080fa004f03be004f02be0092
:100b70004f01be004f00be003600f90000400600e5
:100b80003600f800809fbe00829fbe00849fbe009a
:100b9000869fbe000000fa00c088a9003000200037
:100ba000400307000080fa004f03be004f02be0062
:100bb0004f01be004f00be003600f90000400600a5
:100bc0003600f800809fbe00829fbe00849fbe005a
:100bd000869fbe000000fa00c608a9007000200031
:100be000300307000080fa004f03be004f02be0032
:100bf0004f01be004f00be003600f9000040060065
:100c00003600f800809fbe00829fbe00849fbe0019
:100c1000869fbe000000fa002146800000102000e0
:100c2000008060000000e00003003200c508a90059
:100c3000c00020001b0307002146800000002800a0
:100c4000008060000000e00003003200c5e8a90059
:100c500080002000130307002146800000022000ce
:100c6000008060000000e00003003200c4a8a9007a
:100c7000900020000b0307002046800070006000f9
:100c80000000e00003003200c488a900a00020009a
:100c90000403070020468000610060000000e000bf
:100ca00003003200c408a900b0002000fd020700c4
:100cb000ffff37000040da000000fe0000000500e2
:020000040000fa
:100cc0000000fa00002bef00000e200010588800f2
:100cd000042bef00800f200030588800082bef0015
:100ce0000a2bef000c2bef0040002000705888000a
:100cf000102bef00122bef00162bef00202bef0034
:100d0000222bef00382bef00402bef00482bef0099
:100d1000502bef003a2bef00422bef004a2bef0055
:100d2000522bef003c2bef00442bef004c2bef003d
:100d3000542bef003e2bef00462bef004e2bef0025
:100d4000562bef0000402000505b88000040200040
:100d5000705b880000402000905b8800004020000d
:100d6000b05b8800a02bef00a42bef00a82bef00b6
:100d7000ac2bef00d02bef00d22bef00d42bef00e9
:100d8000d82bef0000302000b05e8800003020003b
:100d9000d05e8800f02bef00f22bef00022cef006a
:100da000e074200040000700c077200056000700d4
:100db000e07a20006d000700207e200085000700fb
:100dc000408120009c0007001160800000f020009e
:100dd000010070001060880001eba80024000700eb
:100de0000d00070017000700f0f12100005c8800eb
:100df00000f02100105c8800842bef00862bef00b0
:100e000000f02100405c88008a2bef00982bef0057
:100e10000080fa00000006000000fa00000ca800a4
:100e200000000000016080000010200000806000d1
:100e30000000e000fbff32000a0ba8000080fa006f
:100e4000000006000000fa00002ca80000000000ce
:100e50000160800000202000008060000000e000b1
:100e6000fbff32000a2ba8000080fa0000000600f9
:100e70000000fa0000eca800000000000160800003
:100e800000002800008060000000e000fbff32004e
:100e90000aeba8000080fa00000006000000fa003b
:100ea0000080fa00000006000200fa00000f78003f
:100eb0001e007800c08088000080fa000000060054
:100ec0000000fa00514080000040200000806000d7
:100ed0000000e00006003200c08080000000e0005a
:100ee00002003200c0808000000001000b48a90011
:100ef0000080fa00000006000200fa00000f7800ef
:100f00000080fa00000006000200fa00000f7800de
:100f10001e007800d08088000080fa0000000600e3
:100f20000200fa0080598000680060000000e000c4
:100f30000800320091608000010f7800d0808000ae
:100f40000000e00003003200d18080001e00780025
:100f5000010001000080fa00000006000200fa0013
:100f6000000f78000080fa00000006000200fa007e
:100f7000000f78001e007800e08088000080fa00f2
:100f8000000006000200fa008159800000202000c5
:100f9000008060000000e00008003200f160800086
:100fa000010f7800e08080000000e00003003200c4
:100fb000e18080001e007800010001000080fa003e
:100fc000000006000200fa00000f78000080fa001e
:100fd000000006000200fa00000f78001e007800f2
:100fe000f08088000080fa00000006000200fa008d
:100ff00080598000610060000000e00008003200bd
:1010000061608000010f7800f08080000000e00047
:1010100003003200f18080001e0078000100010012
:101020000080fa00000006000200fa00000f7800bd
:101030000080fa00000006000200fa00000f7800ad
:101040001e007800008188000080fa000000060081
:101050000200fa0080598000620060000000e00099
:101060000800320071608000010f7800008180006c
:101070000000e00003003200018180001e007800c3
:10108000010001000080fa00000006000000fa00e4
:1010900000002100810421001100980000002100bf
:1010a000810421000108780000002100a0009000c8
:1010b0000110a0002100980000002100a000900075
:1010c0000100a10021009800000021008040eb00f9
:1010d00061409800b00720006011880000002800df
:1010e000e01088002022ef0004c8a90024c8a8004e
:1010f0000080fa00000006000200fa000000210053
:10110000e0409000014f78001e4078000080fa0017
:10111000000006000000fa006080800066004000c9
:10112000608088000ad0bf000040e9000af0b700e4
:101130000ad0bf000004e00003003a004000200095
:1011400040808800020037001000200040808800a6
:101150000080fa00000006000200fa00000f78008c
:101160001c42a80070808000200090000000e00079
:101170000300320070808000200090001e0878007c
:101180000830ef000080fa00000006000800fa00b6
:10119000000f780021479800220798003307980035
:1011a0000000210020009000610060000000e000cd
:1011b0000a003a00ae0190002e4190009e00780097
:1011c00040052100770007003e0190004105210005
:1011d00010c0b3001f000700030037003e0090005e
:1011e0008000eb00010878000080fa000000060093
:1011f0000800fa00000f78002147980022079800a5
:10120000330798000000210020009000610060007a
:101210000000e0000a003a00ae0190002e4190006c
:101220009e007800e0042100460007003e01900087
:10123000e104210010c0b3000600070003003700de
:101240003e0090008000eb00010878000080fa006a
:10125000000006000600fa00004f78001107980011
:10126000220798000000210020009000610060002b
:101270000000e0002e003a002e0090001100200037
:101280000108780000002100100078009e00900006
:101290001100980000002100100078001e4878001e
:1012a0000000210010007800ae009000210098009e
:1012b0000000210010007800e6004000000021003e
:1012c000010878000000210090007800e00421006f
:1012d000808f500003003a000000210081042100ab
:1012e0000108780000002100a00090000110a1007a
:1012f00021009800000021009000900000002100d3
:1013000010007800808f500004003a000000210097
:10131000a00090000100a000210098004080800003
:101320000000e00005003a0004c8a80003003700f0
:101330002e0090008000eb00010878000080fa0089
:10134000000006000800fa00000f7800110798005e
:1013500042479800330798003e009000000040008c
:10136000800078001e007800010878001e007800d8
:1013700010007800800078000100a0001e007800b6
:10138000010878001e007800ce40900021409800af
:101390001e0078009e009000210098000080fa0056
:1013a000000006000800fa00000f780011079800fe
:1013b00042479800330798003e009000000040002c
:1013c000800078001e007800010878001e00780078
:1013d000ce409000214098001e0078009e009000b2
:1013e000210098000080fa00000006000000fa00ca
:1013f00000002100200090006200600000f0a700c3
:101400000000ea000000ea004f00de000040780023
:101410000080fa00000006000000fa000000210031
:10142000200090006100600000f0a7000000ea00ca
:101430000000ea004f00de00004078000080fa0063
:10144000000006000000fa00007c80000080fa0026
:10145000000006000200fa00faff0700000f780003
:101460001e007800240007000004e00002003200a3
:1014700000002800710007001e0078002a00070005
:101480000004e00002003200000024006b000700ae
:101490001e007800320007000004e0000200320065
:1014a00000202000650007001e0078003a000700b9
:1014b0000004e00002003200000820005f00070086
:1014c0001e007800420007000004e0000200320025
:1014d00000042000590007001e0078004a000700a1
:1014e0000004e00002003200000120005300070069
:1014f0000080fa00000006000400fa0010079800bf
:101500000040eb00004f78001e0090000000e0005b
:1015100002003d0010c0b300004f78001e4078006c
:101520000080fa00000006000400fa00100798008e
:101530000040eb00004f78009e0090000000240067
:10154000008060000000e0000200320010c0b30024
:10155000004f78001e4078000080fa00000006006e
:101560000400fa00100798000040eb00004f7800dc
:101570009e00900000202000008060000000e0003d
:101580000200320010c0b300004f78001e40780007
:101590000080fa00000006000400fa00100798001e
:1015a0000040eb00004f78009e00900000082000f3
:1015b000008060000000e0000200320010c0b300b4
:1015c000004f78001e4078000080fa0000000600fe
:1015d0000400fa00100798000040eb00004f78006c
:1015e0009e00900000042000008060000000e000e9
:1015f0000200320010c0b300004f78001e40780097
:101600000080fa00000006000400fa0010079800ad
:101610000040eb00004f78001e009000700060005a
:101620000000e0000200320010c0b300004f78005c
:101630001e4078000080fa00000006000200fa0058
:10164000000f78009e80ea00007c8000008060002f
:10165000007c88000080fa00000006000000fa000c
:10166000802fef000080fa00000006000000fa0062
:1016700010002300307c880060092000407c880036
:101680008c2fef0010032000507c880010102000e9
:10169000707c880060092000807c88001004200095
:1016a000907c8800b82fef00ba2fef00be2fef001c
:1016b000002def00a02fef00a42fef00a62fef00ca
:1016c000a82fef00aa2fef00ae2fef00b02fef00f2
:1016d000b22fef001200200080072000a109200097
:1016e00053f82000804978008149780082497800c9
:1016f00012002000600420007105200043f8200043
:101700008049780081497800824978000000000013
:10171000207c8000610060000000e000fcff3a00d7
:1017200000000000217c800000022000008060009a
:101730000000e000fbff32000080fa00000006001d
:101740000000fa00707c8000ee800a0000000000bb
:101750000080fb0000f0a7000000ea000000ea00a3
:101760004f00de00004078000080fa000000060014
:101770000200fa00000f780021028000200f2000f4
:10178000008060001e007000200288000080fa00c7
:10179000000006000000fa00c3e8a80000000000f6
:1017a000000000000080fa00000006000000fa00bf
:1017b0001d0007002e000700acff070040fd0700da
:1017c00032fe0700f3ff070000022000e8ff0700d9
:0817d0000080fa000000060091
:020000040000fa
:1017d8004810000012000000800000000010000007
:1017e8001800000080000000181000000a00000027
:1017f80080000000221000000400000080000000ab
:1018080028100000200000008000000026100000c2
:101818000200000082000000ffff0000000000003e
:020000040000fa
:101828000000fa00062eef00222eef00f001200043
:10183800107088000080eb00f07088000c2eef001c
:10184800282eef000a2eef00262eef00082eef00bc
:10185800242eef00f0012000007088001c2eef00fd
:101868000080fa00000006000000fa0091428000a3
:10187800f08f2f00008060000080a0009042880058
:1018880091428000f0f82f00008060000040a00026
:10189800904288000080fa00000006000200fa006a
:1018a800000f78009e00780031818800ffff370024
:1018b8000000fa008002210080077800000421005f
:1018c800000188000080fa00000006000000fa000d
:1018d800b4ff07002370ef002470ef000000000041
:1018e80024d0bf000040e80024f0b700fbff370019
:020000040000fa
:020000040005f5
:047e0000ffff000080
:020000040000fa
:020000040005f5
:047e2000ffffff0061
:020000040000fa
:020000040005f5
:047e300078ffff00d8
:020000040000fa
:020000040005f5
:047e38007bffff00cd
:020000040000fa
:020000040005f5
:047e40006003ff00dc
:020000040000fa
:020000040005f5
:047e4800ffffff0039
:020000040000fa
:020000040005f5
:047e5000dfffff0051
:020000040000fa
:020000040005f5
:047e58000000ff0027
:020000040000fa
:020000040005f5
:047e60000000ff001f
:020000040000fa
:020000040005f5
:047e68000000ff0017
:020000040000fa
:020000040005f5
:047e70000000ff000f
:020000040000fa
:020000040005f5
:047e7800ffffff0009
:020000040000fa
:020000040005f5
:047e8000fffcff0004
:020000040000fa
:020000040005f5
:047e8800ffffff00f9
:020000040000fa
:020000040005f5
:047ff800ffffff0088
:020000040000fa
:020000040100f9
:04300000ffffff00cf
:00000001FF
