:020000040000fa
:080000000002040000000000f2
:020000040000fa
:0400080012030000df
:020000040000fa
:04000c005403000099
:020000040000fa
:040010009403000055
:020000040000fa
:0400140032030000b3
:020000040000fa
:04001800740300006d
:020000040000fa
:04001c000e040000ce
:020000040000fa
:04002000b403000025
:020000040000fa
:040024000e040000c6
:020000040000fa
:040028000e040000c2
:020000040000fa
:04002c000e040000be
:020000040000fa
:040030000e040000ba
:020000040000fa
:040034000e040000b6
:020000040000fa
:040038000e040000b2
:020000040000fa
:04003c000e040000ae
:020000040000fa
:040040000e040000aa
:020000040000fa
:040044000e040000a6
:020000040000fa
:040048000e040000a2
:020000040000fa
:04004c000e0400009e
:020000040000fa
:040050000e0400009a
:020000040000fa
:040054000e04000096
:020000040000fa
:040058000e04000092
:020000040000fa
:04005c000e0400008e
:020000040000fa
:040060000e0400008a
:020000040000fa
:040064000e04000086
:020000040000fa
:040068000e04000082
:020000040000fa
:04006c000e0400007e
:020000040000fa
:040070000e0400007a
:020000040000fa
:040074000e04000076
:020000040000fa
:040078000e04000072
:020000040000fa
:04007c000e0400006e
:020000040000fa
:040080000e0400006a
:020000040000fa
:040084000e04000066
:020000040000fa
:040088000e04000062
:020000040000fa
:04008c000e0400005e
:020000040000fa
:040090000e0400005a
:020000040000fa
:040094000e04000056
:020000040000fa
:040098000e04000052
:020000040000fa
:04009c000e0400004e
:020000040000fa
:0400a0000e0400004a
:020000040000fa
:0400a4000e04000046
:020000040000fa
:0400a8000e04000042
:020000040000fa
:0400ac000e0400003e
:020000040000fa
:0400b0000e0400003a
:020000040000fa
:0400b4000e04000036
:020000040000fa
:0400b8000e04000032
:020000040000fa
:0400bc000e0400002e
:020000040000fa
:0400c0000e0400002a
:020000040000fa
:0400c4000e04000026
:020000040000fa
:0400c8000e04000022
:020000040000fa
:0400cc000e0400001e
:020000040000fa
:0400d0000e0400001a
:020000040000fa
:0400d4000e04000016
:020000040000fa
:0400d8000e04000012
:020000040000fa
:0400dc000e0400000e
:020000040000fa
:0400e0000e0400000a
:020000040000fa
:0400e4000e04000006
:020000040000fa
:0400e8000e04000002
:020000040000fa
:0400ec000e040000fe
:020000040000fa
:0400f0000e040000fa
:020000040000fa
:0400f4000e040000f6
:020000040000fa
:0400f8000e040000f2
:020000040000fa
:0400fc000e040000ee
:020000040000fa
:040100000e040000e9
:020000040000fa
:040104000e040000e5
:020000040000fa
:040108000e040000e1
:020000040000fa
:04010c000e040000dd
:020000040000fa
:040110000e040000d9
:020000040000fa
:040114000e040000d5
:020000040000fa
:040118000e040000d1
:020000040000fa
:04011c000e040000cd
:020000040000fa
:040120000e040000c9
:020000040000fa
:040124000e040000c5
:020000040000fa
:040128000e040000c1
:020000040000fa
:04012c000e040000bd
:020000040000fa
:040130000e040000b9
:020000040000fa
:040134000e040000b5
:020000040000fa
:040138000e040000b1
:020000040000fa
:04013c000e040000ad
:020000040000fa
:040140000e040000a9
:020000040000fa
:040144000e040000a5
:020000040000fa
:040148000e040000a1
:020000040000fa
:04014c000e0400009d
:020000040000fa
:040150000e04000099
:020000040000fa
:040154000e04000095
:020000040000fa
:040158000e04000091
:020000040000fa
:04015c000e0400008d
:020000040000fa
:040160000e04000089
:020000040000fa
:040164000e04000085
:020000040000fa
:040168000e04000081
:020000040000fa
:04016c000e0400007d
:020000040000fa
:040170000e04000079
:020000040000fa
:040174000e04000075
:020000040000fa
:040178000e04000071
:020000040000fa
:04017c000e0400006d
:020000040000fa
:040180000e04000069
:020000040000fa
:040184000e04000065
:020000040000fa
:040188000e04000061
:020000040000fa
:04018c000e0400005d
:020000040000fa
:040190000e04000059
:020000040000fa
:040194000e04000055
:020000040000fa
:040198000e04000051
:020000040000fa
:04019c000e0400004d
:020000040000fa
:0401a0000e04000049
:020000040000fa
:0401a4000e04000045
:020000040000fa
:0401a8000e04000041
:020000040000fa
:0401ac000e0400003d
:020000040000fa
:0401b0000e04000039
:020000040000fa
:0401b4000e04000035
:020000040000fa
:0401b8000e04000031
:020000040000fa
:0401bc000e0400002d
:020000040000fa
:0401c0000e04000029
:020000040000fa
:0401c4000e04000025
:020000040000fa
:0401c8000e04000021
:020000040000fa
:0401cc000e0400001d
:020000040000fa
:0401d0000e04000019
:020000040000fa
:0401d4000e04000015
:020000040000fa
:0401d8000e04000011
:020000040000fa
:0401dc000e0400000d
:020000040000fa
:0401e0000e04000009
:020000040000fa
:0401e4000e04000005
:020000040000fa
:0401e8000e04000001
:020000040000fa
:0401ec000e040000fd
:020000040000fa
:0401f0000e040000f9
:020000040000fa
:0401f4000e040000f5
:020000040000fa
:0401f8000e040000f1
:020000040000fa
:0401fc000e040000ed
:020000040000fa
:040200000e040000e8
:020000040000fa
:040204000e040000e4
:020000040000fa
:040208000e040000e0
:020000040000fa
:04020c000e040000dc
:020000040000fa
:040210000e040000d8
:020000040000fa
:040214000e040000d4
:020000040000fa
:040218000e040000d0
:020000040000fa
:04021c000e040000cc
:020000040000fa
:040220000e040000c8
:020000040000fa
:040224000e040000c4
:020000040000fa
:040228000e040000c0
:020000040000fa
:04022c000e040000bc
:020000040000fa
:040230000e040000b8
:020000040000fa
:040234000e040000b4
:020000040000fa
:040238000e040000b0
:020000040000fa
:04023c000e040000ac
:020000040000fa
:040240000e040000a8
:020000040000fa
:040244000e040000a4
:020000040000fa
:040248000e040000a0
:020000040000fa
:04024c000e0400009c
:020000040000fa
:040250000e04000098
:020000040000fa
:040254000e04000094
:020000040000fa
:040258000e04000090
:020000040000fa
:04025c000e0400008c
:020000040000fa
:040260000e04000088
:020000040000fa
:040264000e04000084
:020000040000fa
:040268000e04000080
:020000040000fa
:04026c000e0400007c
:020000040000fa
:040270000e04000078
:020000040000fa
:040274000e04000074
:020000040000fa
:040278000e04000070
:020000040000fa
:04027c000e0400006c
:020000040000fa
:040280000e04000068
:020000040000fa
:040284000e04000064
:020000040000fa
:040288000e04000060
:020000040000fa
:04028c000e0400005c
:020000040000fa
:040290000e04000058
:020000040000fa
:040294000e04000054
:020000040000fa
:040298000e04000050
:020000040000fa
:04029c000e0400004c
:020000040000fa
:0402a0000e04000048
:020000040000fa
:0402a4000e04000044
:020000040000fa
:0402a8000e04000040
:020000040000fa
:0402ac000e0400003c
:020000040000fa
:0402b0000e04000038
:020000040000fa
:0402b4000e04000034
:020000040000fa
:0402b8000e04000030
:020000040000fa
:0402bc000e0400002c
:020000040000fa
:0402c0000e04000028
:020000040000fa
:0402c4000e04000024
:020000040000fa
:0402c8000e04000020
:020000040000fa
:0402cc000e0400001c
:020000040000fa
:0402d0000e04000018
:020000040000fa
:0402d4000e04000014
:020000040000fa
:0402d8000e04000010
:020000040000fa
:0402dc000e0400000c
:020000040000fa
:0402e0000e04000008
:020000040000fa
:0402e4000e04000004
:020000040000fa
:0402e8000e04000000
:020000040000fa
:0402ec000e040000fc
:020000040000fa
:0402f0000e040000f8
:020000040000fa
:0402f4000e040000f4
:020000040000fa
:0402f8000e040000f0
:020000040000fa
:0402fc000e040000ec
:020000040000fa
:040300000e040000e7
:020000040000fa
:040304000e040000e3
:020000040000fa
:040308000e040000df
:020000040000fa
:04030c000e040000db
:020000040000fa
:040310000e040000d7
:020000040000fa
:040314000e040000d3
:020000040000fa
:040318000e040000cf
:020000040000fa
:04031c000e040000cb
:020000040000fa
:040320000e040000c7
:020000040000fa
:040324000e040000c3
:020000040000fa
:040328000e040000bf
:020000040000fa
:04032c000e040000bb
:020000040000fa
:10040000cf0521000eff26000e018800000000002d
:10041000000020000000e000020032000001200087
:100420002002880014000700fe0007000000e00022
:1004300003003a00c0c12000010020000200370084
:100440000000200001002000810f70000100320038
:100450000f000700000020000000e0000200320052
:10046000000002000000000054060200000000002e
:100470000040da000000fe00200020000000e00044
:1004800002003200100020009001880000000600e9
:10049000a1028800800478000000eb001f003700f4
:1004a000e284440054a0b4009905ba00e2844400f8
:1004b00054a0b4009906ba00e284440054a0b400e9
:1004c0000006eb00476fde00fd07b200ae018800ba
:1004d000636ce10003003a000ad801000000eb0061
:1004e0000e003700606ce10008003a00004deb00a0
:1004f0000a05e800020039003420ec000af0a000f0
:100500008b05e900f9ff3e00040037006168e10057
:10051000010032000086eb000b00070019c7ba008b
:100520001905ba000e04e00003003a000a00e000da
:10053000dbff3a0000000600fe07b200ae028800b2
:100540008a047800f5ff37000cd0a300e20f4d00bd
:100550001c00390089027800354dba000a05e80010
:10056000020039003420ec000af0a0008b05e900fd
:100570000f003200254dba000a05e80002003900dc
:100580003420ec000af0a0008b05e90008003200de
:100590000c00e0000600320015cdba000a05e800a4
:1005a000020039003420ec000af0a0008b05e900bd
:1005b0008984e80054a0b4000b00e000e2ff3a0098
:1005c000000006009902ba00055d78008b05e9007d
:1005d000f7ff3200c82ade00055d78008b05e900d0
:1005e000f3ff32000c00e000f1ff320019ddba0029
:1005f000eeff370008050400000000003605040087
:100600000000000068050400000000009a050400d6
:1006100000000000ce0504000000000000060400f9
:10062000000000003600f800809fbe00829fbe00e0
:10063000849fbe00869fbe000000fa00c028a9006b
:100640000000eb00970407000080fa004f03be0093
:100650004f02be004f01be004f00be003600f90041
:10066000004006003600f800809fbe00829fbe005a
:10067000849fbe00869fbe000000fa008e04070023
:10068000c048a90010002000860407000080fa007e
:100690004f03be004f02be004f01be004f00be0020
:1006a0003600f900004006003600f800809fbe00ca
:1006b000829fbe00849fbe00869fbe000000fa009d
:1006c000c068a90020002000760407000080fa001e
:1006d0004f03be004f02be004f01be004f00be00e0
:1006e0003600f900004006003600f800809fbe008a
:1006f000829fbe00849fbe00869fbe000000fa005d
:10070000c088a90030002000660407000080fa00bd
:100710004f03be004f02be004f01be004f00be009f
:100720003600f900004006003600f800809fbe0049
:10073000829fbe00849fbe00869fbe000000fa001c
:10074000c608a90070002000560407000080fa00c7
:100750004f03be004f02be004f01be004f00be005f
:100760003600f900004006003600f800809fbe0009
:10077000829fbe00849fbe00869fbe000000fa00dc
:100780002146800000102000008060000000e00092
:1007900003003200c508a900c00020004104070082
:1007a0002146800000002800008060000000e0007a
:1007b00003003200c5e8a9008000200039040700ca
:1007c0002146800000022000008060000000e00060
:1007d00003003200c4a8a9009000200031040700e3
:1007e00020468000700060000000e000030032003e
:1007f000c488a900a00020002a0407002046800029
:10080000610060000000e00003003200c408a9009d
:10081000b000200023040700ffff37000040da008b
:080820000000fe0000000500cd
:020000040000fa
:100828000000fa00002bef00000e2000105888008e
:10083800042bef00800f200030588800082bef00b1
:100848000a2bef000c2bef004000200070588800a6
:10085800102bef00122bef00162bef00202bef00d0
:10086800222bef00382bef00402bef00482bef0036
:10087800502bef003a2bef00422bef004a2bef00f2
:10088800522bef003c2bef00442bef004c2bef00da
:10089800542bef003e2bef00462bef004e2bef00c2
:1008a800562bef0000402000505b880000402000dd
:1008b800705b880000402000905b880000402000aa
:1008c800b05b8800a02bef00a42bef00a82bef0053
:1008d800ac2bef00d02bef00d22bef00d42bef0086
:1008e800d82bef0000302000b05e880000302000d8
:1008f800d05e8800f02bef00f22bef00022cef0007
:100908008050200043000700605320005900070072
:100918008056200070000700a059200087000700bb
:10092800e05c20009f00070000602000b600070080
:100938001160800000f02000010070001060880045
:1009480001eba800250007000e00070018000700ab
:1009580010102000005c880000102000105c880047
:1009680010002000205c8800862bef00001020007b
:10097800405c88008a2bef00982bef000080fa007b
:10098800000006000000fa00000ca80000000000ab
:100998000160800000102000008060000000e0007e
:1009a800fbff32000a0ba8000080fa0000000600d6
:1009b8000000fa00002ca800000000000160800080
:1009c80000202000008060000000e000fbff3200f3
:1009d8000a2ba8000080fa00000006000000fa00b8
:1009e80000eca80000000000016080000000280062
:1009f800008060000000e000fbff32000aeba80066
:100a08000080fa00000006000000fa000080fa00ea
:100a1800000006000200fa00000f78001e007800af
:100a2800008088000080fa00000006000000fa003c
:100a38005140800000402000008060000000e0007d
:100a480006003200008080000000e0000200320052
:100a580000808000000001000b48a9000080fa0017
:100a6800000006000200fa00000f78000080fa007b
:100a7800000006000200fa00000f78001e0078004f
:100a8800108088000080fa00000006000200fa00ca
:100a980080598000680060000000e0000800320013
:100aa80091608000010f7800108080000000e00055
:100ab80003003200118080001e0078000100010050
:100ac8000080fa00000006000200fa00000f78001b
:100ad8000080fa00000006000200fa00000f78000b
:100ae8001e007800208088000080fa0000000600c0
:100af8000200fa0080598000700060000000e000e9
:100b080008003200a1608000010f7800208080007a
:100b18000000e00003003200218080001e00780001
:100b2800010001000080fa00000006000200fa003f
:100b3800000f78000080fa00000006000200fa00aa
:100b4800000f78001e007800308088000080fa00ce
:100b5800000006000200fa008159800000202000f1
:100b6800008060000000e00008003200f1608000b2
:100b7800010f7800308080000000e00003003200a0
:100b8800318080001e007800010001000080fa001a
:100b9800000006000200fa00000f78000080fa004a
:100ba800000006000200fa00000f78001e0078001e
:100bb800408088000080fa00000006000200fa0069
:100bc80080598000610060000000e00008003200e9
:100bd80061608000010f7800408080000000e00024
:100be80003003200418080001e00780001000100ef
:100bf8000080fa00000006000200fa00000f7800ea
:100c08000080fa00000006000200fa00000f7800d9
:100c18001e007800508088000080fa00000006005e
:100c28000200fa0080598000620060000000e000c5
:100c38000800320071608000010f78005080800049
:100c48000000e00003003200518080001e007800a0
:100c5800010001000080fa00000006000000fa0010
:100c680008cba8000080fa00000006000000fa0087
:100c7800000000000000000000000000000000006c
:100c8800000000000000000000000000000000005c
:100c980000000000000000000080fa0000000600cc
:100ca8000000fa00d6020700226ea800000000002b
:100cb800226ea90000000000226ea80022eea80003
:100cc800238ea800228ea80000000000228ea90012
:100cd80000000000228ea8000cd0bf000040e800f1
:100ce8000cf0b700070207000004e0000200320021
:100cf800ea0107000ff0b700228ea90000000000eb
:100d080050002000c015880050c0b300190107002a
:100d180081032100804878000040eb00150107009e
:100d28009103210080487800228ea800226ea90035
:100d38000000000050002000c015880050c0b3001b
:100d48000c01070001042100804878000040eb00f6
:100d5800080107001104210080487800226ea800cd
:100d6800beff070001003700000000008059800026
:100d780000800a00000000008080fb00805980008d
:100d880011800a00000000000080fb0080806000e5
:100d98008059800099800a00000000000080fb0054
:100da800808060008059800033800a0000000000c5
:100db8000080fb00808060008059800044800a0029
:100dc800000000000080fb00008060000000e000e0
:100dd800e5ff32006060800040828800706080001b
:100de80050828800f06080006082880090608000f7
:100df80070828800a0608000808288009bff0700c6
:100e08009aff070099ff070098ff070097ff070060
:100e180096ff070095ff070094ff070093ff070060
:100e280092ff070091ff070090ff07008fff070060
:100e38008eff07008dff07008cff07008bff070060
:100e48008aff070089ff070088ff070087ff070060
:100e580086ff070085ff070084ff070083ff070060
:100e680082ff070081ff070080ff07007fff070060
:100e78007eff07007dff07007cff07007bff070060
:100e88007aff070079ff070078ff070077ff070060
:100e980076ff070075ff070074ff070073ff070060
:100ea80072ff070071ff070070ff07006fff070060
:100eb8006eff07006dff07006cff07006bff070060
:100ec8006aff070069ff070068ff070067ff070060
:100ed80066ff070065ff070064ff070063ff070060
:100ee80062ff070061ff070060ff07005fff070060
:100ef8005eff07005dff07005cff07005bff070060
:100f08005aff070059ff070058ff070057ff07005f
:100f180056ff070055ff070054ff070053ff07005f
:100f280052ff070051ff070050ff07004fff07005f
:100f38004eff07004dff07004cff07004bff07005f
:100f48004aff070064ff37000000fa00ae22ef00f6
:100f5800b022ef00b422ef0010032000e015880053
:100f6800c022ef00c222ef00c422ef00c622ef0029
:100f780010022800601588000080fa0000000600b2
:100f88000400fa00000f7800110798000000000024
:100f9800a0158000620060000000e000fcff3a003d
:100fa8001e007800104078000080fb00c015880003
:100fb80000000000a11580000002200000806000f1
:100fc8000000e000fbff3a00c01580008040780078
:100fd8001e009000014878000080fa00000006001a
:100fe8001800fa00100f9800210f9800320f98008f
:100ff8000000eb00000f78000000eb0010079800dd
:101008000000eb00700798000000eb00000f98004c
:1010180010002000600798001e0890000000e00003
:1010280005003a000000eb005007980070004700e8
:101038002007980004003700ee0090005107980040
:101048009e089000210798003e0890000000e000ec
:1010580005003a000000eb00400798006e004700ca
:101068003007980005003700ee009000410798000f
:10107800be0890003107980000000000a01580000d
:10108800620060000000e000fcff3a001d0037002d
:10109800a0158000620060000000e00009003a002e
:1010a8002e009000104078000080fb00c0158800da
:1010b800ae0090005e00900000804000200798007d
:1010c8001e0fe800a11580000002200000806000cb
:1010d8000000e0000b003a00c01580008040780056
:1010e8003e00900001487800be0090004e0090003d
:1010f80000804000300798001e0090000000e800c3
:10110800100798002e0890009e007800808f5000ed
:10111800dfff390010003700a11580000002200011
:10112800008060000000e0000b003a00c01580005d
:10113800804078003e00900001487800be00900092
:101148004e00900000804000300798001e0090007c
:101158000000e800100798009e0090002e089000fc
:10116800808f5000ecff39001e0078000080fa00e4
:10117800000006000400fa00204798000e80e800ee
:101188008e0078007eff07001e4078000080fa007d
:10119800000006000600fa00000f7800110798000a
:1011a800220798002e0190009e0090001e007800f3
:1011b8008bff07000080fa00000006000000fa001c
:1011c8006115800000802000008060000000e000c1
:1011d800020032002000200008003700611580005e
:1011e80000402000008060000000e00002003200a3
:1011f80010002000010037000000eb000080fa001a
:10120800000006000000fa00a01580000080fa0027
:10121800000006000000fa00007c80000080fa0050
:10122800000006000200fa00faff0700000f78002d
:101238001e007800240007000004e00002003200cd
:1012480000002800710007001e0078002a0007002f
:101258000004e00002003200000024006b000700d8
:101268001e007800320007000004e000020032008f
:1012780000202000650007001e0078003a000700e3
:101288000004e00002003200000820005f000700b0
:101298001e007800420007000004e000020032004f
:1012a80000042000590007001e0078004a000700cb
:1012b8000004e00002003200000120005300070093
:1012c8000080fa00000006000400fa0010079800e9
:1012d8000040eb00004f78001e0090000000e00086
:1012e80002003d0010c0b300004f78001e40780097
:1012f8000080fa00000006000400fa0010079800b9
:101308000040eb00004f78009e0090000000240091
:10131800008060000000e0000200320010c0b3004e
:10132800004f78001e4078000080fa000000060098
:101338000400fa00100798000040eb00004f780006
:101348009e00900000202000008060000000e00067
:101358000200320010c0b300004f78001e40780031
:101368000080fa00000006000400fa001007980048
:101378000040eb00004f78009e009000000820001d
:10138800008060000000e0000200320010c0b300de
:10139800004f78001e4078000080fa000000060028
:1013a8000400fa00100798000040eb00004f780096
:1013b8009e00900000042000008060000000e00013
:1013c8000200320010c0b300004f78001e407800c1
:1013d8000080fa00000006000400fa0010079800d8
:1013e8000040eb00004f78001e0090007000600085
:1013f8000000e0000200320010c0b300004f780087
:101408001e4078000080fa00000006000200fa0082
:10141800000f78009e80ea00007c80000080600059
:10142800007c88000080fa00000006000000fa0036
:10143800802fef000080fa00000006000000fa008c
:1014480000082000c01188003a22ef003c22ef007b
:1014580020022000f0118800800d20000012880072
:101468004222ef004c22ef004e22ef005022ef0004
:101478005222ef005422ef005622ef005822ef00cc
:101488005a22ef005c22ef0039e2a80038a2a80037
:101498003882a8000080fa00000006000000fa0068
:1014a80000000000f0118000620060000000e00011
:1014b800fcff3a00e0118000620060000000e000dc
:1014c800010032003c22a900201280000040780070
:1014d8000080fa00000006000200fa00004f7800c1
:1014e80000000000f0118000700060000000e000c3
:1014f800fcff3a001e80fb00401288000080fa00c2
:10150800000006000000fa00f01180006200600090
:1015180000f0a7000000ea000000e9004f00de002c
:10152800004078000080fa00000006000000fa0081
:10153800f0118000700060000000e00007003a0031
:10154800c111800000022000008060000000e0005f
:101558000200320010002000010037000000eb00fc
:10156800004078000080fa00000006000000fa0041
:10157800e011800077800a00000000000080fb0076
:1015880000f0a7000000ea000000ea004f00de00bb
:10159800004078000080fa00000006000400fa000d
:1015a800f01180008000eb00008fbe001e00be001e
:1015b800c001dd0002002000e01180008000eb0087
:1015c80000007100818071000080fa0000000600b0
:1015d8000000fa0039e2a80038a2a8003882a80062
:1015e8000080fa00000006000000fa0039e2a900b5
:1015f80038a2a9003882a9000080fa00000006007d
:101608000000fa0010002300307c880060092000e8
:10161800407c88008c2fef0010032000507c88004d
:1016280010102000707c880060092000807c8800f1
:1016380010042000907c8800b82fef00ba2fef002c
:10164800be2fef00002def00a02fef00a42fef001a
:10165800a62fef00a82fef00aa2fef00ae2fef0064
:10166800b02fef00b22fef001200200080072000fb
:10167800a109200053f820008049780081497800aa
:1016880082497800120020006004200071052000c3
:1016980043f8200080497800814978008249780021
:1016a80000000000207c8000610060000000e00075
:1016b800fcff3a0000000000217c800000022000ae
:1016c800008060000000e000fbff32000080fa00ac
:1016d800000006000000fa00707c8000ee800a001e
:1016e800000000000080fb0000f0a7000000ea00f6
:1016f8000000ea004f00de00004078000080fa0099
:10170800000006000000fa00062eef00c0012000cd
:1017180010718800f00120001070880030f62e004b
:10172800f07088000c2eef00282eef000a2eef0034
:1017380000062e0030718800082eef00242eef00de
:10174800f0012000007088001c2eef000000eb0064
:1017580051052000b1468800a10a2000b146880042
:1017680000688800116c800000fc2f000080600079
:101778005000b300106c8800a0c2b30028edb70079
:1017880010c2b3002cedb70000c2b3002dedb700b6
:10179800016c800000fc2f00008060006000b30036
:1017a800006c88000080200051052000b1468800a8
:1017b800a10a2000b1468800006888000080fa006d
:1017c800000006000200fa00000f780021028000e5
:1017d800200f2000008060001e007000200288009a
:1017e8000080fa00000006000000fa00c3e8a90023
:1017f80000000000000000000080fa000000060061
:101808000000fa00bfff0700300007007cff070058
:10181800cdfd070009ff070001fc0700f2ff0700e4
:1018280000022000e7ff07000080fa000000060021
:020000040000fa
:10183800001000000c0000008000000018100000dc
:1018480020000000800000001410000002000000ca
:1018580082000000ffff0000541000000800000094
:1018680082000000050000000000000000000000e9
:10187800381000001c000000800000000c10000060
:1018880008000000800000001610000002000000a0
:0c189800820000000500000000000000bd
:020000040000fa
:1018a4000200fa00000f78009e007800a1808800f2
:1018b400ffff37000000fa00800121008007780054
:1018c40000032100000188000080fa0000000600e7
:0c18d4000000fa000080fa00000006008e
:020000040000fa
:020000040005f5
:047e0000ffff000080
:020000040000fa
:020000040005f5
:047e2000ffffff0061
:020000040000fa
:020000040005f5
:047e300078ffff00d8
:020000040000fa
:020000040005f5
:047e38007bffff00cd
:020000040000fa
:020000040005f5
:047e40006003ff00dc
:020000040000fa
:020000040005f5
:047e4800ffffff0039
:020000040000fa
:020000040005f5
:047e5000dfffff0051
:020000040000fa
:020000040005f5
:047e58000000ff0027
:020000040000fa
:020000040005f5
:047e60000000ff001f
:020000040000fa
:020000040005f5
:047e68000000ff0017
:020000040000fa
:020000040005f5
:047e70000000ff000f
:020000040000fa
:020000040005f5
:047e7800ffffff0009
:020000040000fa
:020000040005f5
:047e8000fffcff0004
:020000040000fa
:020000040005f5
:047e8800ffffff00f9
:020000040000fa
:020000040005f5
:047ff800ffffff0088
:020000040000fa
:020000040100f9
:04300000ffffff00cf
:00000001FF
